:1000000000010101010101010101010101010101E1
:1000100001010101010101010101010101010101D0
:1000200001010000000000000000000000000000CE
:1000300000000000000000000000000000000000C0
:1000400000000000000000000000000000000000B0
:1000500000000000000000000000000000000000A0
:100060000000000101010001010101010101010184
:100070000101010101010101010101010101010170
:100080000101010101010101010101010101010160
:100090000101010101010101010101010101010150
:1000A0000101010101010101000001010000000046
:1000B0000000000000000000000000000000000040
:1000C0000000000000000000000000000000000030
:1000D000000000000000000000000101010101011A
:1000E0000101010101010101010101010101010100
:1000F00001010101010101010101010101010101F0
:1001000001010101010101010101010101010101DF
:1001100001010101010101010101010101010101CF
:1001200001010101010101010101010101010101BF
:1001300001010101010101010000000000000000B7
:1001400000000000000000000000000101010101AA
:10015000010101010101010101010101010101018F
:10016000010101010101010101010101010101017F
:10017000010101010101010101010101010101016F
:10018000010101010101010101010101010101015F
:1005A000010101010101010101010101010101003C
:1005B0000001010100000000000000000000000038
:1005C000000000000000000000000000000000012A
:1005D000010100010101010101010101010101010C
:1005E00001010101010101010101010101010101FB
:1005F00001010101010101010101010101010101EB
:1006000001010101010101010101010101010101DA
:1006100001010101010101010101010101010101CA
:1006200001010101010101010000000000000000C2
:1006300000000000000000000000000000000000BA
:1006400000000000000000000000000000000000AA
:100650000000000000000000000000010101010195
:10066000010101010101010101010101010101017A
:10067000010101010101010101010101010101016A
:10068000010101010101010101010101010101015A
:10069000010101010101010101010101010101014A
:1006A0000101010101000000000000000000000045
:1006B000000000000000000000000000000000003A
:1006C000000000000000000000000000000000002A
:1006D000000000000000000000000000000000001A
:1006E00000010101010101010101010101010101FB
:1006F00001010101010101010101010101010101EA
:1007000001010101010101010101010101010101D9
:1007100001010101010101010101010101010101C9
:1007200000000000000000000000000000000000C9
:1007300000000000000000000000000000000000B9
:1007400000000000000000000000000000000000A9
:100750000000000000000000000000000000000099
:10076000000000010101010101010101010101017C
:100770000101010101010101010101010101010169
:100780000101010101010101010101010101010159
:10079000010101010101010101010101010101004A
:1007A0000000000000000000000000000000000049
:1007B0000000000000000000000000000000000039
:1007C0000000000000000000000000000000000029
:1007D0000000000000000000000000000000000019
:1007E00000000000010101010101010101010101FD
:1007F00001010101010101010101010101010101E9
:1008000001010101010101010101010101010101D8
:1008100001010101010101010101010101010000CA
:1008200000000000000000000000000000000000C8
:1008300000000000000000000000000000000000B8
:1008400000000000000000000000000000000000A8
:100850000000000000000000000000000000000098
:10086000000000000000010101010101010101017E
:100870000101010101010101010101010101010168
:100880000101010101010101010101010101010158
:10089000010101010101010101010101010000004B
:1008A0000000000000000000000000000000000048
:1008B0000000000000000000000000000000000038
:1008C0000000000000000000000000000000000028
:1008D0000000000000000000000000000000000018
:1008E0000000000000000000010101010101010100
:1008F00001010101010101010101010101010101E8
:1009000001010101010101010101010101010101D7
:1009100001010101010101010101010000000000CC
:1009200000000000000000000000000000000000C7
:1009300000000000000000000000000000000000B7
:1009400000000000000000000000000000000000A7
:100950000000000000000000000000000000000097
:100960000000000000000000000101010101010180
:100970000101010101010101010101010101010167
:100980000101010101010101010101010101010157
:10099000010101010101010101010000000000004D
:1009A0000000000000000000000000000000000047
:1009B0000000000000000000000000000000000037
:1009C0000000000000000000000000000000000027
:1009D0000000000000000000000000000000000017
:1009E0000000000000000000000001010101010101
:1009F00001010101010101010101010101010101E7
:100A000001010101010101010101010101010101D6
:100A100001010101010101010100000000000000CD
:100A200000000000000000000000000000000000C6
:100A300000000000000000000000000000000000B6
:100A400000000000000000000000000000000000A6
:100A50000000000000000000000000000000000096
:100A60000000000000000000000001010101010180
:100A70000101010101010101010101010101010166
:100A80000101010101010101010101010101010156
:100A9000010101010101010100000000000000004E
:100AA0000000000000000000000000000000000046
:100AB0000000000000000000000000000000000036
:100AC0000000000000000000000000000000000026
:100AD0000000000000000000000000000000000016
:100AE0000000000000000000000000010101010101
:100AF00001010101010101010101010101010101E6
:100B000001010101010101010101010101010101D5
:100B100001010101010101000000000000000000CE
:100B200000000000000000000000000000000000C5
:100B300000000000000000000000000000000000B5
:100B400000000000000000000000000000000000A5
:100B50000000000000000000000000000000000095
:100B60000000000000000000000000000101010181
:100B70000101010101010101010101010101010165
:100B80000101010101010101010101010101010155
:100B9000010101010101010000000000000000004E
:100BA0000000000000000000000000000000000045
:100BB0000000000000000001000000000000000034
:100BC0000000000000000000000000000000000025
:100BD0000000000000000000000000000000000015
:100BE0000000000000000000000000000101010101
:100BF00001010101010101010101010101010101E5
:100C000001010101010101010101010101010101D4
:100C100001010101010101000000000000000000CD
:100C200000000000000000000000000001010101C0
:100C300001010101010101010101010101010101A4
:100C40000101010101010101010101010101000096
:100C50000000000000000000000000000000000094
:100C60000000000000000000000000000001010181
:100C70000101010101010101010101010101010164
:100C80000101010101010101010101010101010154
:100C9000010101010101000000000000000000004E
:100CA000000000000000000101010101010101013B
:100CB0000101010101010101010101010101010124
:100CC0000101010101010101010101010101010114
:100CD0000101010101010101010101010100000007
:100CE0000000000000000000000000000000010102
:100CF00001010101010101010101010101010101E4
:100D000001010101010101010101010101010101D3
:100D100001010101010000000000000000000000CE
:100D200000000000000101010101010101010101B8
:100D300001010101010101010101010101010101A3
:100D40000101010101010101010101010101010193
:100D50000101010101010101010101010101000085
:100D60000000000000000000000000000000010181
:100D70000101010101010101010101010101010163
:100D80000101010101010101010101010101010153
:100D9000010101010100000000000000000000004E
:100DA0000000000001010101010101010101010137
:100DB0000101010101010101010101010101010123
:100DC0000101010101010101010101010101010113
:100DD0000101010101010101010101010101010103
:100DE0000000000000000000000000000000010101
:100DF00001010101010101010101010101010101E3
:100E000001010101010101010101010101010101D2
:100E100001010101010000000000000000000000CD
:100E200000000101010101010101010101010101B4
:100E300001010101010101010101010101010101A2
:100E40000101010101010101010101010101010192
:100E50000101010101010101010101010101010182
:100E6000010100000000000000000000000000017F
:100E70000101010101010101010101010101010162
:100E80000101010101010101010101010101010152
:100E9000010101010100000000000000000000004D
:100EA0000001010101010101010101010101010133
:100EB0000101010101010101010101010101010122
:100EC0000101010101010101010101010101010112
:100ED0000101010101010101010101010101010102
:100EE00001010100000000000000000000000001FE
:100EF00001010101010101010101010101010101E2
:100F000001010101010101010101010101010101D1
:100F100001010101010000000000000000000000CC
:100F200001010101010101010101010101010101B1
:100F300001010101010101010101010101010101A1
:100F40000101010101010101010101010101010191
:100F50000101010101010101010101010101010181
:100F6000010101000000000000000000000000017D
:100F70000101010101010101010101010101010161
:100F80000101010101010101010101010101010151
:100F9000010101010100000000000000000000004C
:100FA0000101010101010101010101010101010131
:100FB0000101010101010101010101010101010121
:100FC0000101010101010101010101010101010111
:100FD0000101010101010101010101010101010101
:100FE00001010100000000000000000000000001FD
:100FF00001010101010101010101010101010101E1
:1010000001010101010101010101010101010101D0
:1010100001010101010000000000000000000000CB
:1010200001010101010101010101010101010101B0
:1010300001010101010101010101010101010101A0
:101040000101010101010101010101010101010190
:101050000101010101010101010101010101010180
:10106000010101010000000000000000000000007C
:101070000101010101010101010101010101010160
:101080000101010101010101010101010101010150
:10109000010101010100000000000000000000014A
:1010A0000101010101010101010101010101010130
:1010B0000101010101010101010101010101010120
:1010C0000101010101010101010101010101010110
:1010D0000101010101010101010101010101010100
:1010E00001010101010000000000000000000000FB
:1010F00001010101010101010101010101010101E0
:1011000001010101010101010101010101010101CF
:1011100001010101010000000000000000000101C8
:1011200001010101010101010101010101010101AF
:10113000010101010101010101010101010101019F
:10114000010101010101010101010101010101018F
:10115000010101010101010101010101010101017F
:101160000101010101010000000000000000000079
:10117000010101010101010101010101010101015F
:10118000010101010101010101010101010101014F
:101190000101010101000000000000000000010148
:1011A000010101010101010101010101010101012F
:1011B000010101010101010101010101010101011F
:1011C000010101010101010101010101010101010F
:1011D00001010101010101010101010101010101FF
:1011E00001010101010100000000000000000000F9
:1011F00001010101010101010101010101010101DF
:1012000001010101010101010101010101010101CE
:1012100001010101010000000000000000000101C7
:1012200001010101010101010101010101010101AE
:10123000010101010101010101010101010101019E
:10124000010101010101010101010101010101018E
:10125000010101010101010101010101010101017E
:101260000101010101010000000000000000000078
:10127000010101010101010101010101010101015E
:10128000010101010101010101010101010101014E
:101290000101010101010000000000000000010146
:1012A000010101010101010101010101010101012E
:1012B000010101010101010101010101010101011E
:1012C000010101010101010101010101010101010E
:1012D00001010101010101010101010101010101FE
:1012E00001010101010000000000000000000000F9
:1012F00001010101010101010101010101010101DE
:1013000001010101010101010101010101010101CD
:1013100001010101010000000000000000000101C6
:1013200001010101010101010101010101010101AD
:10133000010101010101010101010101010101019D
:10134000010101010101010101010101010101018D
:10135000010101010101010101010101010101017D
:101360000101010101000000000000000000000078
:10137000000101010101010101010101010101015E
:10138000010101010101010101010101010101014D
:101390000101010101000000000000000000010146
:1013A000010101010101010101010101010101012D
:1013B000010101010101010101010101010101011D
:1013C000010101010101010101010101010101010D
:1013D00001010101010101010101010101010101FD
:1013E00001010101010100000000000000000000F7
:1013F00000010101010101010101010101010101DE
:1014000001010101010101010101010101010101CC
:1014100001010101010000000000000000000101C5
:1014200001010101010101010101010101010101AC
:10143000010101010101010101010101010101019C
:10144000010101010101010101010101010101018C
:10145000010101010101010101010101010101017C
:101460000101010101010000000000000000000076
:10147000000101010101010101010101010101015D
:10148000010101010101010101010101010101014C
:101490000101010101000000000000000000010145
:1014A000010101010101010101010101010101012C
:1014B000010101010101010101010101010101011C
:1014C000010101010101010101010101010101010C
:1014D00001010101010101010101010101010101FC
:1014E00001010101010100000000000000000000F6
:1014F00000010101010101010101010101010101DD
:1015000001010101010101010101010101010101CB
:1015100001010101010000000000000000000101C4
:1015200001010101010101010101010101010101AB
:10153000010101010101010101010101010101019B
:10154000010101010101010101010101010101018B
:10155000010101010101010101010101010101017B
:101560000101010101010000000000000000000075
:10157000000101010101010101010101010101015C
:10158000010101010101010101010101010101014B
:101590000101010101000000000000000000010144
:1015A000010101010101010101010101010101012B
:1015B000010101010101010101010101010101011B
:1015C000010101010101010101010101010101010B
:1015D00001010101010101010101010101010101FB
:1015E00001010101010100000000000000000000F5
:1015F00000010101010101010101010101010101DC
:1016000001010101010101010101010101010101CA
:1016100001010101000000000000000000000101C4
:1016200001010101010101010101010101010101AA
:10163000010101010101010101010101010101019A
:10164000010101010101010101010101010101018A
:10165000010101010101010101010101010101017A
:101660000101010101010000000000000000000074
:10167000000101010101010101010101010101015B
:10168000010101010101010101010101010101014A
:101690000101010100000000000000000000010144
:1016A000010101010101010101010101010101012A
:1016B000010101010101010101010101010101011A
:1016C000010101010101010101010101010101010A
:1016D00001010101010101010101010101010101FA
:1016E00001010101010100000000000000000000F4
:1016F00000010101010101010101010101010101DB
:1017000001010101010101010101010101010101C9
:1017100001010101000000000000000000000101C3
:1017200001010101010101010101010101010101A9
:101730000101010101010101010101010101010199
:101740000101010101010101010101010101010189
:101750000101010101010101010101010101010179
:101760000101010101010000000000000000000073
:101770000101010101010101010101010101010159
:101780000101010101010101010101010101010149
:101790000101010100000000000000000000010143
:1017A0000101010101010101010101010101010129
:1017B0000101010101010101010101010101010119
:1017C0000101010101010101010101010101010109
:1017D00001010101010101010101010101010101F9
:1017E00001010101010100000000000000000000F3
:1017F00000010101010101010101010101010101DA
:1018000001010101010101010101010101010101C8
:1018100001010101000000000000000000000101C2
:1018200001010101010101010101010101010101A8
:101830000101010101010101010101010101010198
:101840000101010101010101010101010101010188
:101850000101010101010101010101010101010178
:101860000101010101010000000000000000000072
:101870000001010101010101010101010101010159
:101880000101010101010101010101010101010148
:101890000101010100000000000000000000010142
:1018A0000101010101010101010101010101010128
:1018B0000101010101010101010101010101010118
:1018C0000101010101010101010101010101010108
:1018D00001010101010101010101010101010101F8
:1018E00001010101010100000000000000000000F2
:1018F00000010101010101010101010101010101D9
:1019000001010101010101010101010101010101C7
:1019100001010101000000000000000000000101C1
:1019200001010101010101010101010101010101A7
:101930000101010101010101010101010101010197
:101940000101010101010101010101010101010187
:101950000101010101010101010101010101010177
:101960000101010101010000000000000000000071
:101970000001010101010101010101010101010158
:101980000101010101010101010101010101010147
:101990000101010101000000000000000000010140
:1019A0000101010101010101010101010101010127
:1019B0000101010101010101010101010101010117
:1019C0000101010101010101010101010101010107
:1019D00001010101010101010101010101010101F7
:1019E00001010101010100000000000000000000F1
:1019F00000010101010101010101010101010101D8
:101A000001010101010101010101010101010101C6
:101A100001010101010000000000000000000101BF
:101A200001010101010101010101010101010101A6
:101A30000101010101010101010101010101010196
:101A40000101010101010101010101010101010186
:101A50000101010101010101010101010101010176
:101A60000101010101010000000000000000000070
:101A70000001010101010101010101010101010157
:101A80000101010101010101010101010101010146
:101A9000010101010100000000000000000001013F
:101AA0000101010101010101010101010101010126
:101AB0000101010101010101010101010101010116
:101AC0000101010101010101010101010101010106
:101AD00001010101010101010101010101010101F6
:101AE00001010101010100000000000000000000F0
:101AF00000000101010101010101010101010101D8
:101B000001010101010101010101010101010101C5
:101B100001010101000000000000000000000101BF
:101B200001010101010101010101010101010101A5
:101B30000101010101010101010101010101010195
:101B40000101010101010101010101010101010185
:101B50000101010101010101010101010101010175
:101B6000010101010101010000000000000000006E
:101B70000000010101010101010101010101010157
:101B80000101010101010101010101010101010145
:101B9000010101010000000000000000000101013E
:101BA0000101010101010101010101010101010125
:101BB0000101010101010101010101010101010115
:101BC0000101010101010101010101010101010105
:101BD00001010101010101010101010101010101F5
:101BE00001010101010101000000000000000000EE
:101BF00000010101010101010101010101010101D6
:101C000001010101010101010101010101010101C4
:101C100001010101000000000000000000010101BD
:101C200001010101010101010101010101010101A4
:101C30000101010101010101010101010101010194
:101C40000101010101010101010101010101010184
:101C50000101010101010101010101010101010174
:101C6000010101010101010000000000000000006D
:101C70000001010101010101010101010101010155
:101C80000101010101010101010101010101010144
:101C9000010101010000000000000000000101013D
:101CA0000101010101010101010101010101010124
:101CB0000101010101010101010101010101010114
:101CC0000101010101010101010101010101010104
:101CD00001010101010101010101010101010101F4
:101CE00001010101010101000000000000000000ED
:101CF00000010101010101010101010101010101D5
:101D000001010101010101010101010101010101C3
:101D100001010101000000000000000000000101BD
:101D200001010101010101010101010101010101A3
:101D30000101010101010101010101010101010193
:101D40000101010101010101010101010101010183
:101D50000101010101010101010101010101010173
:101D6000010101010101010000000000000000006C
:101D70000000010101010101010101010101010155
:101D80000101010101010101010101010101010143
:101D9000010101010000000000000000000001013D
:101DA0000101010101010101010101010101010123
:101DB0000101010101010101010101010101010113
:101DC0000101010101010101010101010101010103
:101DD00001010101010101010101010101010101F3
:101DE00001010101010101000000000000000000EC
:101DF00000000101010101010101010101010101D5
:101E000001010101010101010101010101010101C2
:101E100001010101000000000000000000000101BC
:101E200001010101010101010101010101010101A2
:101E30000101010101010101010101010101010192
:101E40000101010101010101010101010101010182
:101E50000101010101010101010101010101010172
:101E6000010101010101010000000000000000006B
:101E70000000010101010101010101010101010154
:101E80000101010101010101010101010101010142
:101E9000010101010000000000000000000001013C
:101EA0000101010101010101010101010101010122
:101EB0000101010101010101010101010101010112
:101EC0000101010101010101010101010101010102
:101ED00001010101010101010101010101010101F2
:101EE00001010101010101000000000000000000EB
:101EF00000000101010101010101010101010101D4
:101F000001010101010101010101010101010101C1
:101F100001010101000000000000000000000101BB
:101F200001010101010101010101010101010101A1
:101F30000101010101010101010101010101010191
:101F40000101010101010101010101010101010181
:101F50000101010101010101010101010101010171
:101F6000010101010101010000000000000000006A
:101F70000000010101010101010101010101010153
:101F80000101010101010101010101010101010141
:101F9000010101010000000000000000000001013B
:101FA0000101010101010101010101010101010121
:101FB0000101010101010101010101010101010111
:101FC0000101010101010101010101010101010101
:101FD00001010101010101010101010101010101F1
:101FE00001010101010101000000000000000000EA
:101FF00000010101010101010101010101010101D2
:1020000001010101010101010101010101010101C0
:1020100001010101000000000000000000000101BA
:1020200001010101010101010101010101010101A0
:102030000101010101010101010101010101010190
:102040000101010101010101010101010101010180
:102050000101010101010101010101010101010170
:102060000101010101010100000000000000000069
:102070000001010101010101010101010101010151
:102080000101010101010101010101010101010140
:10209000010101010000000000000000000001013A
:1020A0000101010101010101010101010101010120
:1020B0000101010101010101010101010101010110
:1020C0000101010101010101010101010101010100
:1020D00001010101010101010101010101010101F0
:1020E00001010101010101010000000000000000E8
:1020F00000000101010101010101010101010101D2
:1021000001010101010101010101010101010101BF
:1021100001010101000000000000000000000101B9
:10212000010101010101010101010101010101019F
:10213000010101010101010101010101010101018F
:10214000010101010101010101010101010101017F
:10215000010101010101010101010101010101016F
:102160000101010101010101000000000000000067
:102170000000010101010101010101010101010151
:10218000010101010101010101010101010101013F
:102190000101010100000000000000000000010139
:1021A000010101010101010101010101010101011F
:1021B000010101010101010101010101010101010F
:1021C00001010101010101010101010101010101FF
:1021D00001010101010101010101010101010101EF
:1021E00001010101010101010000000000000000E7
:1021F00000000101010101010101010101010101D1
:1022000001010101010101010101010101010101BE
:1022100001010101000000000000000000000101B8
:10222000010101010101010101010101010101019E
:10223000010101010101010101010101010101018E
:10224000010101010101010101010101010101017E
:10225000010101010101010101010101010101016E
:102260000101010101010100000000000000000067
:102270000000010101010101010101010101010150
:10228000010101010101010101010101010101013E
:102290000101010100000000000000000000000139
:1022A000010101010101010101010101010101011E
:1022B000010101010101010101010101010101010E
:1022C00001010101010101010101010101010101FE
:1022D00001010101010101010101010101010101EE
:1022E00001010101010101000000000000000000E7
:1022F00000000101010101010101010101010101D0
:1023000001010101010101010101010101010101BD
:1023100001010101000000000000000000000001B8
:10232000010101010101010101010101010101019D
:10233000010101010101010101010101010101018D
:10234000010101010101010101010101010101017D
:10235000010101010101010101010101010101016D
:102360000101010101010100000000000000000066
:10237000000001010101010101010101010101014F
:10238000010101010101010101010101010101013D
:102390000101010100000000000000000000000138
:1023A000010101010101010101010101010101011D
:1023B000010101010101010101010101010101010D
:1023C00001010101010101010101010101010101FD
:1023D00001010101010101010101010101010101ED
:1023E00001010101010101010000000000000000E5
:1023F00000000101010101010101010101010101CF
:1024000001010101010101010101010101010101BC
:1024100001010101010000000000000000000001B6
:10242000010101010101010101010101010101019C
:10243000010101010101010101010101010101018C
:10244000010101010101010101010101010101017C
:10245000010101010101010101010101010101016C
:102460000101010101010101000000000000000064
:10247000000101010101010101010101010101014D
:10248000010101010101010101010101010101013C
:102490000101010101000000000000000000000136
:1024A000010101010101010101010101010101011C
:1024B000010101010101010101010101010101010C
:1024C00001010101010101010101010101010101FC
:1024D00001010101010101010101010101010101EC
:1024E00001010101010101010000000000000000E4
:1024F00000010101010101010101010101010101CD
:1025000001010101010101010101010101010101BB
:1025100001010101010000000000000000000001B5
:10252000010101010101010101010101010101019B
:10253000010101010101010101010101010101018B
:10254000010101010101010101010101010101017B
:10255000010101010101010101010101010101016B
:102560000101010101010101000000000000000063
:10257000000101010101010101010101010101014C
:10258000010101010101010101010101010101013B
:102590000101010101000000000000000000000135
:1025A000010101010101010101010101010101011B
:1025B000010101010101010101010101010101010B
:1025C00001010101010101010101010101010101FB
:1025D00001010101010101010101010101010101EB
:1025E00001010101010101010000000000000000E3
:1025F00000010101010101010101010101010101CC
:1026000001010101010101010101010101010101BA
:1026100001010101010000000000000000000101B3
:10262000010101010101010101010101010101019A
:10263000010101010101010101010101010101018A
:10264000010101010101010101010101010101017A
:10265000010101010101010101010101010101016A
:102660000101010101010100000000000000000063
:10267000000101010101010101010101010101014B
:10268000010101010101010101010101010101013A
:102690000101010101000000000000000000010133
:1026A000010101010101010101010101010101011A
:1026B000010101010101010101010101010101010A
:1026C00001010101010101010101010101010101FA
:1026D00001010101010101010101010101010101EA
:1026E00001010101010101000000000000000000E3
:1026F00000010101010101010101010101010101CB
:1027000001010101010101010101010101010101B9
:1027100001010101000000000000000000000101B3
:102720000101010101010101010101010101010199
:102730000101010101010101010101010101010189
:102740000101010101010101010101010101010179
:102750000101010101010101010101010101010169
:102760000101010101010101000000000000000061
:10277000000001010101010101010101010101014B
:102780000101010101010101010101010101010139
:102790000101010100000000000000000000010133
:1027A0000101010101010101010101010101010119
:1027B0000101010101010101010101010101010109
:1027C00001010101010101010101010101010101F9
:1027D00001010101010101010101010101010101E9
:1027E00001010101010101010000000000000000E1
:1027F00000000101010101010101010101010101CB
:1028000001010101010101010101010101010101B8
:1028100001010101010000000000000000000101B1
:102820000101010101010101010101010101010198
:102830000101010101010101010101010101010188
:102840000101010101010101010101010101010178
:102850000101010101010101010101010101010168
:102860000101010101010100000000000000000061
:10287000000001010101010101010101010101014A
:102880000101010101010101010101010101010138
:102890000101010101000000000000000000010131
:1028A0000101010101010101010101010101010118
:1028B0000101010101010101010101010101010108
:1028C00001010101010101010101010101010101F8
:1028D00001010101010101010101010101010101E8
:1028E00001010101010101000000000000000000E1
:1028F00000000101010101010101010101010101CA
:1029000001010101010101010101010101010101B7
:1029100001010101010000000000000000000101B0
:102920000101010101010101010101010101010197
:102930000101010101010101010101010101010187
:102940000101010101010101010101010101010177
:102950000101010101010101010101010101010167
:102960000101010101010100000000000000000060
:102970000001010101010101010101010101010148
:102980000101010101010101010101010101010137
:102990000101010101000000000000000000010130
:1029A0000101010101010101010101010101010117
:1029B0000101010101010101010101010101010107
:1029C00001010101010101010101010101010101F7
:1029D00001010101010101010101010101010101E7
:1029E00001010101010101000000000000000000E0
:1029F00000010101010101010101010101010101C8
:102A000001010101010101010101010101010101B6
:102A100001010101010000000000000000000101AF
:102A20000101010101010101010101010101010196
:102A30000101010101010101010101010101010186
:102A40000101010101010101010101010101010176
:102A50000101010101010101010101010101010166
:102A6000010101010101010000000000000000005F
:102A70000000010101010101010101010101010148
:102A80000101010101010101010101010101010136
:102A9000010101010100000000000000000001012F
:102AA0000101010101010101010101010101010116
:102AB0000101010101010101010101010101010106
:102AC00001010101010101010101010101010101F6
:102AD00001010101010101010101010101010101E6
:102AE00001010101010101000000000000000000DF
:102AF00000000101010101010101010101010101C8
:102B000001010101010101010101010101010101B5
:102B100001010101010000000000000000000101AE
:102B20000101010101010101010101010101010195
:102B30000101010101010101010101010101010185
:102B40000101010101010101010101010101010175
:102B50000101010101010101010101010101010165
:102B6000010101010101000000000000000000005F
:102B70000000010101010101010101010101010147
:102B80000101010101010101010101010101010135
:102B9000010101010100000000000000000001012E
:102BA0000101010101010101010101010101010115
:102BB0000101010101010101010101010101010105
:102BC00001010101010101010101010101010101F5
:102BD00001010101010101010101010101010101E5
:102BE00001010101010101000000000000000000DE
:102BF00000000101010101010101010101010101C7
:102C000001010101010101010101010101010101B4
:102C100001010101010100000000000000000101AC
:102C20000101010101010101010101010101010194
:102C30000101010101010101010101010101010184
:102C40000101010101010101010101010101010174
:102C50000101010101010101010101010101010164
:102C6000010101010101010000000000000000005D
:102C70000000010101010101010101010101010146
:102C80000101010101010101010101010101010134
:102C9000010101010100000000000000000000012E
:102CA0000101010101010101010101010101010114
:102CB0000101010101010101010101010101010104
:102CC00001010101010101010101010101010101F4
:102CD00001010101010101010101010101010101E4
:102CE00001010101010101000000000000000000DD
:102CF00000000101010101010101010101010101C6
:102D000001010101010101010101010101010101B3
:102D100001010101010000000000000000000001AD
:102D20000101010101010101010101010101010193
:102D30000101010101010101010101010101010183
:102D40000101010101010101010101010101010173
:102D50000101010101010101010101010101010163
:102D6000010101010101010000000000000000005C
:102D70000001010101010101010101010101010144
:102D80000101010101010101010101010101010133
:102D9000010101010100000000000000000000012D
:102DA0000101010101010101010101010101010113
:102DB0000101010101010101010101010101010103
:102DC00001010101010101010101010101010101F3
:102DD00001010101010101010101010101010101E3
:102DE00001010101010101000000000000000000DC
:102DF00000000101010101010101010101010101C5
:102E000001010101010101010101010101010101B2
:102E100001010101010000000000000000000001AC
:102E20000101010101010101010101010101010192
:102E30000101010101010101010101010101010182
:102E40000101010101010101010101010101010172
:102E50000101010101010101010101010101010162
:102E6000010101010101010000000000000000005B
:102E70000000010101010101010101010101010144
:102E80000101010101010101010101010101010132
:102E9000010101010100000000000000000000012C
:102EA0000101010101010101010101010101010112
:102EB0000101010101010101010101010101010102
:102EC00001010101010101010101010101010101F2
:102ED00001010101010101010101010101010101E2
:102EE00001010101010101000000000000000000DB
:102EF00000010101010101010101010101010101C3
:102F000001010101010101010101010101010101B1
:102F100001010101010100000000000000000001AA
:102F20000101010101010101010101010101010191
:102F30000101010101010101010101010101010181
:102F40000101010101010101010101010101010171
:102F50000101010101010101010101010101010161
:102F6000010101010101010000000000000000005A
:102F70000001010101010101010101010101010142
:102F80000101010101010101010101010101010131
:102F9000010101010100000000000000000000012B
:102FA0000101010101010101010101010101010111
:102FB0000101010101010101010101010101010101
:102FC00001010101010101010101010101010101F1
:102FD00001010101010101010101010101010101E1
:102FE00001010101010100000000000000000000DB
:102FF00000010101010101010101010101010101C2
:1030000001010101010101010101010101010101B0
:1030100001010101010100000000000000000001A9
:103020000101010101010101010101010101010190
:103030000101010101010101010101010101010180
:103040000101010101010101010101010101010170
:103050000101010101010101010101010101010160
:10306000010101010101000000000000000000005A
:103070000001010101010101010101010101010141
:103080000101010101010101010101010101010130
:103090000101010101010000000000000000000129
:1030A0000101010101010101010101010101010110
:1030B0000101010101010101010101010101010100
:1030C00001010101010101010101010101010101F0
:1030D00001010101010101010101010101010101E0
:1030E00001010101010100000000000000000000DA
:1030F00000010101010101010101010101010101C1
:1031000001010101010101010101010101010101AF
:1031100001010101010100000000000000000001A8
:10312000010101010101010101010101010101018F
:10313000010101010101010101010101010101017F
:10314000010101010101010101010101010101016F
:10315000010101010101010101010101010101015F
:103160000101010101010000000000000000000059
:103170000000010101010101010101010101010141
:10318000010101010101010101010101010101012F
:103190000101010101010000000000000000000128
:1031A000010101010101010101010101010101010F
:1031B00001010101010101010101010101010101FF
:1031C00001010101010101010101010101010101EF
:1031D00001010101010101010101010101010101DF
:1031E00001010101010100000000000000000000D9
:1031F00000000101010101010101010101010101C1
:1032000001010101010101010101010101010101AE
:1032100001010101010100000000000000000000A8
:10322000010101010101010101010101010101018E
:10323000010101010101010101010101010101017E
:10324000010101010101010101010101010101016E
:10325000010101010101010101010101010101015E
:103260000101010101010000000000000000000058
:10327000000101010101010101010101010101013F
:10328000010101010101010101010101010101012E
:103290000101010101010000000000000000000028
:1032A000010101010101010101010101010101010E
:1032B00001010101010101010101010101010101FE
:1032C00001010101010101010101010101010101EE
:1032D00001010101010101010101010101010101DE
:1032E00001010101010000000000000000000000D9
:1032F00000010101010101010101010101010101BF
:1033000001010101010101010101010101010101AD
:1033100001010101010101000000000000000000A6
:10332000010101010101010101010101010101018D
:10333000010101010101010101010101010101017D
:10334000010101010101010101010101010101016D
:10335000010101010101010101010101010101015D
:103360000101010101000000000000000000000058
:10337000010101010101010101010101010101013D
:10338000010101010101010101010101010101012D
:103390000101010101010100000000000000000026
:1033A000010101010101010101010101010101010D
:1033B00001010101010101010101010101010101FD
:1033C00001010101010101010101010101010101ED
:1033D00001010101010101010101010101010101DD
:1033E00001010101000000000000000000000000D9
:1033F00001010101010101010101010101010101BD
:1034000001010101010101010101010101010101AC
:1034100001010101010101000000000000000000A5
:10342000000001010101010101010101010101018E
:10343000010101010101010101010101010101017C
:10344000010101010101010101010101010101016C
:10345000010101010101010101010101010101015C
:103460000101010000000000000000000000000059
:10347000010101010101010101010101010101013C
:10348000010101010101010101010101010101012C
:103490000101010101010100000000000000000025
:1034A000000000010101010101010101010101010F
:1034B00001010101010101010101010101010101FC
:1034C00001010101010101010101010101010101EC
:1034D00001010101010101010101010101010101DC
:1034E00001010000000000000000000000000000DA
:1034F00001010101010101010101010101010101BC
:1035000001010101010101010101010101010101AB
:1035100001010101010101000000000000000000A4
:10352000000000010101010101010101010101018E
:10353000010101010101010101010101010101017B
:10354000010101010101010101010101010101016B
:10355000010101010101010101010101010101015B
:103560000101000000000000000000000000000158
:10357000010101010101010101010101010101013B
:10358000010101010101010101010101010101012B
:103590000101010101010100000000000000000024
:1035A000000000000101010101010101010101010F
:1035B00001010101010101010101010101010101FB
:1035C00001010101010101010101010101010101EB
:1035D00001010101010101010101010101010101DB
:1035E00001000000000000000000000000000001D9
:1035F00001010101010101010101010101010101BB
:1036000001010101010101010101010101010101AA
:1036100001010101010101010000000000000000A2
:10362000000000000001010101010101010101018F
:10363000010101010101010101010101010101017A
:10364000010101010101010101010101010101016A
:10365000010101010101010101010101010101005B
:103660000000000000000000000000000000010158
:10367000010101010101010101010101010101013A
:10368000010101010101010101010101010101012A
:103690000101010101010101000000000000000022
:1036A0000000000000000001010101010101010111
:1036B00001010101010101010101010101010101FA
:1036C00001010101010101010101010101010101EA
:1036D00001010101010101010101010101000000DD
:1036E00000000000000000000000000000000101D8
:1036F00001010101010101010101010101010101BA
:1037000001010101010101010101010101010101A9
:1037100001010101010101010000000000000000A1
:103720000000000000000000000000010101010194
:103730000101010101010101010101010101010179
:103740000101010101010101010101010101010169
:103750000101010101010101010000000000000060
:103760000000000000000000000000000001010156
:103770000101010101010101010101010101010139
:103780000101010101010101010101010101010129
:103790000101010101010101010000000000000020
:1037A0000000000000000000000000000000000019
:1037B00000000001010101000001010101010101FE
:1037C00001010101010101010100000000000000F0
:1037D00000000000000000000000000000000000E9
:1037E00000000000000000000000000000010101D6
:1037F00001010101010101010101010101010101B9
:1038000001010101010101010101010101010101A8
:10381000010101010101010101000000000000009F
:103820000000000000000000000000000000000098
:103830000000000000000000000000000000000088
:103840000000000000000000000000000000000078
:103850000000000000000000000000000000000068
:103860000000000000000000000000000001010155
:103870000101010101010101010101010101010138
:103880000101010101010101010101010101010128
:10389000010101010101010101010000000000001E
:1038A0000000000000000000000000000000000018
:1038B0000000000000000000000000000000000008
:1038C00000000000000000000000000000000000F8
:1038D00000000000000000000000000000000000E8
:1038E00000000000000000000000000101010101D3
:1038F00001010101010101010101010101010101B8
:1039000001010101010101010101010101010101A7
:10391000010101010101010101010100000000009C
:103920000000000000000000000000000000000097
:103930000000000000000000000000000000000087
:103940000000000000000000000000000000000077
:103950000000000000000000000000000000000067
:103960000000000000000000000000010101010152
:103970000101010101010101010101010101010137
:103980000101010101010101010101010101010127
:10399000010101010101010101010101000000001B
:1039A0000000000000000000000000000000000017
:1039B0000000000000000000000000000000000007
:1039C00000000000000000000000000000000000F7
:1039D00000000000000000000000000000000000E7
:1039E00000000000000000000000010101010101D1
:1039F00001010101010101010101010101010101B7
:103A000001010101010101010101010101010101A6
:103A10000101010101010101010101010100000099
:103A20000000000000000000000000000000000096
:103A30000000000000000000000000000000000086
:103A40000000000000000000000000000000000076
:103A50000000000000000000000000000000000066
:103A60000000000000000000000001010101010150
:103A70000101010101010101010101010101010136
:103A80000101010101010101010101010101010126
:103A90000101010101010101010101010101000018
:103AA0000000000000000000000000000000000016
:103AB0000000000000000000000000000000000006
:103AC00000000000000000000000000000000000F6
:103AD00000000000000000000000000000000000E6
:103AE00000000000000000000001010101010101CF
:103AF00001010101010101010101010101010101B6
:103B000001010101010101010101010101010101A5
:103B10000101010101010101010101010101010096
:103B20000000000000000000000000000000000095
:103B30000000000000000000000000000000000085
:103B40000000000000000000000000000000000075
:103B50000000000000000000000000000000000065
:103B6000000000000000000001010101010101014D
:103B70000101010101010101010101010101010135
:103B80000101010101010101010101010101010125
:103B90000101010101010101010101010101010115
:103BA0000100000000000000000000000000000014
:103BB0000000000000000000000000000000000005
:103BC00000000000000000000000000000000000F5
:103BD00000000000000000000000000000000000E5
:103BE00000000000000001010101010101010101CB
:103BF00001010101010101010101010101010101B5
:103C000001010101010101010101010101010101A4
:103C10000101010101010101010101010101010194
:103C20000101010000000000000000000000000091
:103C30000000000000000000000000000000000084
:103C40000000000000000000000000000000000074
:103C50000000000000000000000000000000000064
:103C60000000000001010101010101010101010148
:103C70000101010101010101010101010101010134
:103C80000101010101010101010101010101010124
:103C90000101010101010101010101010101010114
:103CA000010101010101000000000000000000000E
:103CB0000000000000000000000000000000000004
:103CC00000000000000000000000000000000000F4
:103CD00000000000000000000000000000000000E4
:103CE00000010101010101010101010101010101C5
:103CF00001010101010101010101010101010101B4
:103D000001010101010101010101010101010101A3
:103D10000101010101010101010101010101010193
:103D2000010101010101010101000000000000008A
:103D30000000000000000000000000000000000083
:103D40000000000000000000000000000000000073
:103D5000000000000000000000000000010101015F
:103D60000101010101010101010101010101010143
:103D70000101010101010101010101010101010133
:103D80000101010101010101010101010101010123
:103D90000101010101010101010101010101010113
:103DA0000101010101010101010101010101000005
:103DB0000000000000000000000000000000000003
:103DC00000000000000000000000000000000000F3
:103DD00000000000000001010101010101010101D9
:103DE00001010101010101010101010101010101C3
:103DF00001010101010101010101010101010101B3
:103E000001010101010101010101010101010101A2
:103E10000101010101010101010101010101010192
:103E20000101010101010101010101010101010182
:103E30000101010101010101010101000100000175
:103E40000101000000010101010101010101010165
:103E50000101010101010101010101010101010152
:103E60000101010101010101010101010101010142
:103E70000101010101010101010101010101010132
:103E80000101010101010101010101010101010122
:103E90000101010101010101010101010101010112
:103EA0000101010101010101010101010101010102
:103EB00001010101010101010101010001000001F5
:103EC00001010000000101010101010101010101E5
:103ED00001010101010101010101010101010101D2
:103EE00001010101010101010101010101010101C2
:103EF00001010101010101010101010101010101B2
:103F000001010101010101010101010101010101A1
:103F10000101010101010101010101010101010191
:103F20000101010101010101010101010101010181
:103F30000101010101010101010101010101010171
:103F40000101010101010101010101010101010161
:103F50000101010101010101010101010101010151
:103F60000101010101010101010101010101010141
:103F70000101010101010101010101010101010131
:103F80000101010101010101010101010101010121
:103F90000101010101010101010101010101010111
:103FA0000101010101010101010101010101010101
:103FB00001010101010101010101010101010101F1
:103FC00001010101010101010101010101010101E1
:103FD00001010101010101010101010101010101D1
:103FE00001010101010101010101010101010101C1
:103FF00001010101010101010101010101010101B1
:00000001FF
